{
  "_format": "hh-sol-artifact-1",
  "contractName": "ERC677TestToken",
  "sourceName": "contracts/tokens/ERC677TestToken.sol",
  "abi": [
    {
      "inputs": [
        {
          "internalType": "string",
          "name": "name",
          "type": "string"
        },
        {
          "internalType": "string",
          "name": "symbol",
          "type": "string"
        },
        {
          "internalType": "uint8",
          "name": "decimals",
          "type": "uint8"
        },
        {
          "internalType": "address",
          "name": "_faucet",
          "type": "address"
        }
      ],
      "stateMutability": "nonpayable",
      "type": "constructor"
    },
    {
      "anonymous": false,
      "inputs": [
        {
          "indexed": true,
          "internalType": "address",
          "name": "owner",
          "type": "address"
        },
        {
          "indexed": true,
          "internalType": "address",
          "name": "spender",
          "type": "address"
        },
        {
          "indexed": false,
          "internalType": "uint256",
          "name": "value",
          "type": "uint256"
        }
      ],
      "name": "Approval",
      "type": "event"
    },
    {
      "anonymous": false,
      "inputs": [
        {
          "indexed": true,
          "internalType": "address",
          "name": "from",
          "type": "address"
        },
        {
          "indexed": true,
          "internalType": "address",
          "name": "to",
          "type": "address"
        },
        {
          "indexed": false,
          "internalType": "uint256",
          "name": "value",
          "type": "uint256"
        },
        {
          "indexed": false,
          "internalType": "bytes",
          "name": "data",
          "type": "bytes"
        }
      ],
      "name": "Transfer",
      "type": "event"
    },
    {
      "anonymous": false,
      "inputs": [
        {
          "indexed": true,
          "internalType": "address",
          "name": "from",
          "type": "address"
        },
        {
          "indexed": true,
          "internalType": "address",
          "name": "to",
          "type": "address"
        },
        {
          "indexed": false,
          "internalType": "uint256",
          "name": "value",
          "type": "uint256"
        }
      ],
      "name": "Transfer",
      "type": "event"
    },
    {
      "inputs": [
        {
          "internalType": "address",
          "name": "owner",
          "type": "address"
        },
        {
          "internalType": "address",
          "name": "spender",
          "type": "address"
        }
      ],
      "name": "allowance",
      "outputs": [
        {
          "internalType": "uint256",
          "name": "",
          "type": "uint256"
        }
      ],
      "stateMutability": "view",
      "type": "function"
    },
    {
      "inputs": [
        {
          "internalType": "address",
          "name": "_spender",
          "type": "address"
        },
        {
          "internalType": "uint256",
          "name": "_value",
          "type": "uint256"
        }
      ],
      "name": "approve",
      "outputs": [
        {
          "internalType": "bool",
          "name": "",
          "type": "bool"
        }
      ],
      "stateMutability": "nonpayable",
      "type": "function"
    },
    {
      "inputs": [
        {
          "internalType": "address",
          "name": "account",
          "type": "address"
        }
      ],
      "name": "balanceOf",
      "outputs": [
        {
          "internalType": "uint256",
          "name": "",
          "type": "uint256"
        }
      ],
      "stateMutability": "view",
      "type": "function"
    },
    {
      "inputs": [],
      "name": "decimals",
      "outputs": [
        {
          "internalType": "uint8",
          "name": "",
          "type": "uint8"
        }
      ],
      "stateMutability": "view",
      "type": "function"
    },
    {
      "inputs": [
        {
          "internalType": "address",
          "name": "spender",
          "type": "address"
        },
        {
          "internalType": "uint256",
          "name": "subtractedValue",
          "type": "uint256"
        }
      ],
      "name": "decreaseAllowance",
      "outputs": [
        {
          "internalType": "bool",
          "name": "",
          "type": "bool"
        }
      ],
      "stateMutability": "nonpayable",
      "type": "function"
    },
    {
      "inputs": [],
      "name": "faucet",
      "outputs": [
        {
          "internalType": "address",
          "name": "",
          "type": "address"
        }
      ],
      "stateMutability": "view",
      "type": "function"
    },
    {
      "inputs": [
        {
          "internalType": "address",
          "name": "spender",
          "type": "address"
        },
        {
          "internalType": "uint256",
          "name": "addedValue",
          "type": "uint256"
        }
      ],
      "name": "increaseAllowance",
      "outputs": [
        {
          "internalType": "bool",
          "name": "",
          "type": "bool"
        }
      ],
      "stateMutability": "nonpayable",
      "type": "function"
    },
    {
      "inputs": [
        {
          "internalType": "address",
          "name": "to",
          "type": "address"
        },
        {
          "internalType": "uint256",
          "name": "value",
          "type": "uint256"
        }
      ],
      "name": "mint",
      "outputs": [],
      "stateMutability": "nonpayable",
      "type": "function"
    },
    {
      "inputs": [],
      "name": "name",
      "outputs": [
        {
          "internalType": "string",
          "name": "",
          "type": "string"
        }
      ],
      "stateMutability": "view",
      "type": "function"
    },
    {
      "inputs": [],
      "name": "symbol",
      "outputs": [
        {
          "internalType": "string",
          "name": "",
          "type": "string"
        }
      ],
      "stateMutability": "view",
      "type": "function"
    },
    {
      "inputs": [],
      "name": "totalSupply",
      "outputs": [
        {
          "internalType": "uint256",
          "name": "",
          "type": "uint256"
        }
      ],
      "stateMutability": "view",
      "type": "function"
    },
    {
      "inputs": [
        {
          "internalType": "address",
          "name": "_to",
          "type": "address"
        },
        {
          "internalType": "uint256",
          "name": "_value",
          "type": "uint256"
        }
      ],
      "name": "transfer",
      "outputs": [
        {
          "internalType": "bool",
          "name": "success",
          "type": "bool"
        }
      ],
      "stateMutability": "nonpayable",
      "type": "function"
    },
    {
      "inputs": [
        {
          "internalType": "address",
          "name": "_to",
          "type": "address"
        },
        {
          "internalType": "uint256",
          "name": "_value",
          "type": "uint256"
        },
        {
          "internalType": "bytes",
          "name": "_data",
          "type": "bytes"
        }
      ],
      "name": "transferAndCall",
      "outputs": [
        {
          "internalType": "bool",
          "name": "success",
          "type": "bool"
        }
      ],
      "stateMutability": "nonpayable",
      "type": "function"
    },
    {
      "inputs": [
        {
          "internalType": "address",
          "name": "_from",
          "type": "address"
        },
        {
          "internalType": "address",
          "name": "_to",
          "type": "address"
        },
        {
          "internalType": "uint256",
          "name": "_value",
          "type": "uint256"
        }
      ],
      "name": "transferFrom",
      "outputs": [
        {
          "internalType": "bool",
          "name": "",
          "type": "bool"
        }
      ],
      "stateMutability": "nonpayable",
      "type": "function"
    }
  ],
  "bytecode": "0x60a06040523480156200001157600080fd5b50604051620014ce380380620014ce833981016040819052620000349162000156565b83838383838383600362000049848262000289565b50600462000058838262000289565b506005805460ff191660ff9290921691909117905550506001600160a01b0316608052506200035595505050505050565b634e487b7160e01b600052604160045260246000fd5b600082601f830112620000b157600080fd5b81516001600160401b0380821115620000ce57620000ce62000089565b604051601f8301601f19908116603f01168101908282118183101715620000f957620000f962000089565b816040528381526020925086838588010111156200011657600080fd5b600091505b838210156200013a57858201830151818301840152908201906200011b565b838211156200014c5760008385830101525b9695505050505050565b600080600080608085870312156200016d57600080fd5b84516001600160401b03808211156200018557600080fd5b62000193888389016200009f565b95506020870151915080821115620001aa57600080fd5b50620001b9878288016200009f565b935050604085015160ff81168114620001d157600080fd5b60608601519092506001600160a01b0381168114620001ef57600080fd5b939692955090935050565b600181811c908216806200020f57607f821691505b6020821081036200023057634e487b7160e01b600052602260045260246000fd5b50919050565b601f8211156200028457600081815260208120601f850160051c810160208610156200025f5750805b601f850160051c820191505b8181101562000280578281556001016200026b565b5050505b505050565b81516001600160401b03811115620002a557620002a562000089565b620002bd81620002b68454620001fa565b8462000236565b602080601f831160018114620002f55760008415620002dc5750858301515b600019600386901b1c1916600185901b17855562000280565b600085815260208120601f198616915b82811015620003265788860151825594840194600190910190840162000305565b5085821015620003455787850151600019600388901b60f8161c191681555b5050505050600190811b01905550565b608051611156620003786000396000818161025401526104ce01526111566000f3fe608060405234801561001057600080fd5b50600436106100ea5760003560e01c806340c10f191161008c578063a457c2d711610066578063a457c2d7146101e3578063a9059cbb146101f6578063dd62ed3e14610209578063de5f72fd1461024f57600080fd5b806340c10f191461019057806370a08231146101a557806395d89b41146101db57600080fd5b806323b872dd116100c857806323b872dd14610142578063313ce56714610155578063395093511461016a5780634000aea01461017d57600080fd5b806306fdde03146100ef578063095ea7b31461010d57806318160ddd14610130575b600080fd5b6100f761029b565b6040516101049190610e31565b60405180910390f35b61012061011b366004610e74565b61032d565b6040519015158152602001610104565b6002545b604051908152602001610104565b610120610150366004610e9e565b610386565b60055460405160ff9091168152602001610104565b610120610178366004610e74565b6103e1565b61012061018b366004610f09565b610437565b6101a361019e366004610e74565b6104b6565b005b6101346101b3366004610ff2565b73ffffffffffffffffffffffffffffffffffffffff1660009081526020819052604090205490565b6100f7610568565b6101206101f1366004610e74565b610577565b610120610204366004610e74565b610653565b61013461021736600461100d565b73ffffffffffffffffffffffffffffffffffffffff918216600090815260016020908152604080832093909416825291909152205490565b6102767f000000000000000000000000000000000000000000000000000000000000000081565b60405173ffffffffffffffffffffffffffffffffffffffff9091168152602001610104565b6060600380546102aa90611040565b80601f01602080910402602001604051908101604052809291908181526020018280546102d690611040565b80156103235780601f106102f857610100808354040283529160200191610323565b820191906000526020600020905b81548152906001019060200180831161030657829003601f168201915b5050505050905090565b60008273ffffffffffffffffffffffffffffffffffffffff81161580159061036b575073ffffffffffffffffffffffffffffffffffffffff81163014155b61037457600080fd5b61037e84846106a4565b949350505050565b60008273ffffffffffffffffffffffffffffffffffffffff8116158015906103c4575073ffffffffffffffffffffffffffffffffffffffff81163014155b6103cd57600080fd5b6103d88585856106b2565b95945050505050565b33600081815260016020908152604080832073ffffffffffffffffffffffffffffffffffffffff8716845290915281205490919061042d9082908690610428908790611093565b6106cb565b5060019392505050565b6000610443848461087e565b508373ffffffffffffffffffffffffffffffffffffffff163373ffffffffffffffffffffffffffffffffffffffff167fe19260aff97b920c7df27010903aeb9c8d2be5d310a2c67824cf3f15396e4c1685856040516104a39291906110d2565b60405180910390a361042d84848461088c565b3373ffffffffffffffffffffffffffffffffffffffff7f0000000000000000000000000000000000000000000000000000000000000000161461055a576040517f08c379a000000000000000000000000000000000000000000000000000000000815260206004820152600a60248201527f4e6f74206661756365740000000000000000000000000000000000000000000060448201526064015b60405180910390fd5b610564828261091c565b5050565b6060600480546102aa90611040565b33600081815260016020908152604080832073ffffffffffffffffffffffffffffffffffffffff871684529091528120549091908381101561063b576040517f08c379a000000000000000000000000000000000000000000000000000000000815260206004820152602560248201527f45524332303a2064656372656173656420616c6c6f77616e63652062656c6f7760448201527f207a65726f0000000000000000000000000000000000000000000000000000006064820152608401610551565b61064882868684036106cb565b506001949350505050565b60008273ffffffffffffffffffffffffffffffffffffffff811615801590610691575073ffffffffffffffffffffffffffffffffffffffff81163014155b61069a57600080fd5b61037e848461087e565b60003361042d8185856106cb565b6000336106c0858285610a3c565b610648858585610b13565b73ffffffffffffffffffffffffffffffffffffffff831661076d576040517f08c379a0000000000000000000000000000000000000000000000000000000008152602060048201526024808201527f45524332303a20617070726f76652066726f6d20746865207a65726f2061646460448201527f72657373000000000000000000000000000000000000000000000000000000006064820152608401610551565b73ffffffffffffffffffffffffffffffffffffffff8216610810576040517f08c379a000000000000000000000000000000000000000000000000000000000815260206004820152602260248201527f45524332303a20617070726f766520746f20746865207a65726f20616464726560448201527f73730000000000000000000000000000000000000000000000000000000000006064820152608401610551565b73ffffffffffffffffffffffffffffffffffffffff83811660008181526001602090815260408083209487168084529482529182902085905590518481527f8c5be1e5ebec7d5bd14f71427d1e84f3dd0314c0f7b2291e5b200ac8c7c3b925910160405180910390a3505050565b60003361042d818585610b13565b6040517fa4c0ed36000000000000000000000000000000000000000000000000000000008152839073ffffffffffffffffffffffffffffffffffffffff82169063a4c0ed36906108e4903390879087906004016110eb565b600060405180830381600087803b1580156108fe57600080fd5b505af1158015610912573d6000803e3d6000fd5b5050505050505050565b73ffffffffffffffffffffffffffffffffffffffff8216610999576040517f08c379a000000000000000000000000000000000000000000000000000000000815260206004820152601f60248201527f45524332303a206d696e7420746f20746865207a65726f2061646472657373006044820152606401610551565b80600260008282546109ab9190611093565b909155505073ffffffffffffffffffffffffffffffffffffffff8216600090815260208190526040812080548392906109e5908490611093565b909155505060405181815273ffffffffffffffffffffffffffffffffffffffff8316906000907fddf252ad1be2c89b69c2b068fc378daa952ba7f163c4a11628f55a4df523b3ef9060200160405180910390a35050565b73ffffffffffffffffffffffffffffffffffffffff8381166000908152600160209081526040808320938616835292905220547fffffffffffffffffffffffffffffffffffffffffffffffffffffffffffffffff8114610b0d5781811015610b00576040517f08c379a000000000000000000000000000000000000000000000000000000000815260206004820152601d60248201527f45524332303a20696e73756666696369656e7420616c6c6f77616e63650000006044820152606401610551565b610b0d84848484036106cb565b50505050565b73ffffffffffffffffffffffffffffffffffffffff8316610bb6576040517f08c379a000000000000000000000000000000000000000000000000000000000815260206004820152602560248201527f45524332303a207472616e736665722066726f6d20746865207a65726f20616460448201527f64726573730000000000000000000000000000000000000000000000000000006064820152608401610551565b73ffffffffffffffffffffffffffffffffffffffff8216610c59576040517f08c379a000000000000000000000000000000000000000000000000000000000815260206004820152602360248201527f45524332303a207472616e7366657220746f20746865207a65726f206164647260448201527f65737300000000000000000000000000000000000000000000000000000000006064820152608401610551565b73ffffffffffffffffffffffffffffffffffffffff831660009081526020819052604090205481811015610d0f576040517f08c379a000000000000000000000000000000000000000000000000000000000815260206004820152602660248201527f45524332303a207472616e7366657220616d6f756e742065786365656473206260448201527f616c616e636500000000000000000000000000000000000000000000000000006064820152608401610551565b73ffffffffffffffffffffffffffffffffffffffff808516600090815260208190526040808220858503905591851681529081208054849290610d53908490611093565b925050819055508273ffffffffffffffffffffffffffffffffffffffff168473ffffffffffffffffffffffffffffffffffffffff167fddf252ad1be2c89b69c2b068fc378daa952ba7f163c4a11628f55a4df523b3ef84604051610db991815260200190565b60405180910390a3610b0d565b6000815180845260005b81811015610dec57602081850181015186830182015201610dd0565b81811115610dfe576000602083870101525b50601f017fffffffffffffffffffffffffffffffffffffffffffffffffffffffffffffffe0169290920160200192915050565b602081526000610e446020830184610dc6565b9392505050565b803573ffffffffffffffffffffffffffffffffffffffff81168114610e6f57600080fd5b919050565b60008060408385031215610e8757600080fd5b610e9083610e4b565b946020939093013593505050565b600080600060608486031215610eb357600080fd5b610ebc84610e4b565b9250610eca60208501610e4b565b9150604084013590509250925092565b7f4e487b7100000000000000000000000000000000000000000000000000000000600052604160045260246000fd5b600080600060608486031215610f1e57600080fd5b610f2784610e4b565b925060208401359150604084013567ffffffffffffffff80821115610f4b57600080fd5b818601915086601f830112610f5f57600080fd5b813581811115610f7157610f71610eda565b604051601f82017fffffffffffffffffffffffffffffffffffffffffffffffffffffffffffffffe0908116603f01168101908382118183101715610fb757610fb7610eda565b81604052828152896020848701011115610fd057600080fd5b8260208601602083013760006020848301015280955050505050509250925092565b60006020828403121561100457600080fd5b610e4482610e4b565b6000806040838503121561102057600080fd5b61102983610e4b565b915061103760208401610e4b565b90509250929050565b600181811c9082168061105457607f821691505b60208210810361108d577f4e487b7100000000000000000000000000000000000000000000000000000000600052602260045260246000fd5b50919050565b600082198211156110cd577f4e487b7100000000000000000000000000000000000000000000000000000000600052601160045260246000fd5b500190565b82815260406020820152600061037e6040830184610dc6565b73ffffffffffffffffffffffffffffffffffffffff841681528260208201526060604082015260006103d86060830184610dc656fea2646970667358221220f6a5a253f161b16d8ea41f8423133fd57f2ac6c4bf0eae3837b02975c9306c9164736f6c634300080f0033",
  "linkReferences": {},
  "deployedLinkReferences": {}
}