{
  "_format": "hh-sol-artifact-1",
  "contractName": "Faucet",
  "sourceName": "contracts/Faucet.sol",
  "abi": [
    {
      "inputs": [],
      "stateMutability": "nonpayable",
      "type": "constructor"
    },
    {
      "anonymous": false,
      "inputs": [
        {
          "indexed": false,
          "internalType": "uint256",
          "name": "desiredDrips",
          "type": "uint256"
        },
        {
          "indexed": false,
          "internalType": "uint256",
          "name": "succeedDrips",
          "type": "uint256"
        }
      ],
      "name": "ClaimDrips",
      "type": "event"
    },
    {
      "anonymous": false,
      "inputs": [
        {
          "indexed": true,
          "internalType": "address",
          "name": "previousOwner",
          "type": "address"
        },
        {
          "indexed": true,
          "internalType": "address",
          "name": "newOwner",
          "type": "address"
        }
      ],
      "name": "OwnershipTransferred",
      "type": "event"
    },
    {
      "inputs": [
        {
          "internalType": "address",
          "name": "_token",
          "type": "address"
        },
        {
          "internalType": "uint256",
          "name": "_amount",
          "type": "uint256"
        }
      ],
      "name": "addDrip",
      "outputs": [],
      "stateMutability": "nonpayable",
      "type": "function"
    },
    {
      "inputs": [],
      "name": "allDrips",
      "outputs": [
        {
          "components": [
            {
              "internalType": "bool",
              "name": "active",
              "type": "bool"
            },
            {
              "internalType": "address",
              "name": "token",
              "type": "address"
            },
            {
              "internalType": "uint256",
              "name": "amount",
              "type": "uint256"
            }
          ],
          "internalType": "struct Faucet.Drip[]",
          "name": "",
          "type": "tuple[]"
        }
      ],
      "stateMutability": "view",
      "type": "function"
    },
    {
      "inputs": [
        {
          "internalType": "uint256",
          "name": "_dripId",
          "type": "uint256"
        }
      ],
      "name": "claim",
      "outputs": [],
      "stateMutability": "nonpayable",
      "type": "function"
    },
    {
      "inputs": [],
      "name": "claimAll",
      "outputs": [],
      "stateMutability": "nonpayable",
      "type": "function"
    },
    {
      "inputs": [
        {
          "internalType": "uint256[]",
          "name": "_dripsToClaim",
          "type": "uint256[]"
        }
      ],
      "name": "claimMany",
      "outputs": [],
      "stateMutability": "nonpayable",
      "type": "function"
    },
    {
      "inputs": [
        {
          "internalType": "uint256",
          "name": "",
          "type": "uint256"
        }
      ],
      "name": "drips",
      "outputs": [
        {
          "internalType": "bool",
          "name": "active",
          "type": "bool"
        },
        {
          "internalType": "address",
          "name": "token",
          "type": "address"
        },
        {
          "internalType": "uint256",
          "name": "amount",
          "type": "uint256"
        }
      ],
      "stateMutability": "view",
      "type": "function"
    },
    {
      "inputs": [],
      "name": "dripsLength",
      "outputs": [
        {
          "internalType": "uint256",
          "name": "",
          "type": "uint256"
        }
      ],
      "stateMutability": "view",
      "type": "function"
    },
    {
      "inputs": [
        {
          "internalType": "address",
          "name": "account",
          "type": "address"
        }
      ],
      "name": "getDripStatus",
      "outputs": [
        {
          "internalType": "enum Faucet.DripStatus[]",
          "name": "status",
          "type": "uint8[]"
        }
      ],
      "stateMutability": "view",
      "type": "function"
    },
    {
      "inputs": [
        {
          "internalType": "uint256",
          "name": "",
          "type": "uint256"
        },
        {
          "internalType": "address",
          "name": "",
          "type": "address"
        }
      ],
      "name": "hasDripClaimed",
      "outputs": [
        {
          "internalType": "bool",
          "name": "",
          "type": "bool"
        }
      ],
      "stateMutability": "view",
      "type": "function"
    },
    {
      "inputs": [
        {
          "internalType": "address",
          "name": "account",
          "type": "address"
        }
      ],
      "name": "isOperator",
      "outputs": [
        {
          "internalType": "bool",
          "name": "",
          "type": "bool"
        }
      ],
      "stateMutability": "view",
      "type": "function"
    },
    {
      "inputs": [
        {
          "internalType": "address",
          "name": "_token",
          "type": "address"
        },
        {
          "internalType": "uint256",
          "name": "_amount",
          "type": "uint256"
        },
        {
          "internalType": "address",
          "name": "_to",
          "type": "address"
        }
      ],
      "name": "mint",
      "outputs": [],
      "stateMutability": "nonpayable",
      "type": "function"
    },
    {
      "inputs": [
        {
          "internalType": "address",
          "name": "",
          "type": "address"
        }
      ],
      "name": "operators",
      "outputs": [
        {
          "internalType": "bool",
          "name": "",
          "type": "bool"
        }
      ],
      "stateMutability": "view",
      "type": "function"
    },
    {
      "inputs": [],
      "name": "owner",
      "outputs": [
        {
          "internalType": "address",
          "name": "",
          "type": "address"
        }
      ],
      "stateMutability": "view",
      "type": "function"
    },
    {
      "inputs": [],
      "name": "renounceOwnership",
      "outputs": [],
      "stateMutability": "nonpayable",
      "type": "function"
    },
    {
      "inputs": [
        {
          "internalType": "uint256",
          "name": "_dripId",
          "type": "uint256"
        },
        {
          "internalType": "bool",
          "name": "_active",
          "type": "bool"
        }
      ],
      "name": "setDripActive",
      "outputs": [],
      "stateMutability": "nonpayable",
      "type": "function"
    },
    {
      "inputs": [
        {
          "internalType": "address",
          "name": "account",
          "type": "address"
        },
        {
          "internalType": "bool",
          "name": "status",
          "type": "bool"
        }
      ],
      "name": "setOperator",
      "outputs": [],
      "stateMutability": "nonpayable",
      "type": "function"
    },
    {
      "inputs": [
        {
          "internalType": "address",
          "name": "newOwner",
          "type": "address"
        }
      ],
      "name": "transferOwnership",
      "outputs": [],
      "stateMutability": "nonpayable",
      "type": "function"
    }
  ],
  "bytecode": "0x60806040523480156200001157600080fd5b506200001d336200002d565b620000276200007d565b62000eda565b600080546001600160a01b038381166001600160a01b0319831681178455604051919092169283917f8be0079c531659141344cd1fd0a4f28419497f9722a3daafe3b4186f6b6457e09190a35050565b6000601230604051620000909062000e41565b608080825260049082018190526308ce4c2f60e31b60a083015260c0602083018190528201526308ca482b60e31b60e082015260ff90921660408301526001600160a01b0316606082015261010001604051809103906000f080158015620000fc573d6000803e3d6000fd5b509050620001a18169010f0cf064dd592000006040805160608101825260018082526001600160a01b03948516602083019081529282019384526002805491820181556000819052915191026000805160206200678f83398151915281018054935190951661010002610100600160a81b0319921515929092166001600160a81b0319909316929092171790925551600080516020620067af83398151915290910155565b6000600630604051620001b49062000e4f565b6080808252600a908201526915195d1a195c881554d160b21b60a082015260c060208201819052600490820152631554d11560e21b60e082015260ff90921660408301526001600160a01b0316606082015261010001604051809103906000f08015801562000227573d6000803e3d6000fd5b509050620002c78164012a05f2006040805160608101825260018082526001600160a01b03948516602083019081529282019384526002805491820181556000819052915191026000805160206200678f83398151915281018054935190951661010002610100600160a81b0319921515929092166001600160a81b0319909316929092171790925551600080516020620067af83398151915290910155565b6000601230604051620002da9062000e4f565b6080808252600b908201526a109a5b985b98d9481554d160aa1b60a082015260c06020820181905260049082015263109554d160e21b60e082015260ff90921660408301526001600160a01b0316606082015261010001604051809103906000f0801580156200034e573d6000803e3d6000fd5b509050620003f38169010f0cf064dd592000006040805160608101825260018082526001600160a01b03948516602083019081529282019384526002805491820181556000819052915191026000805160206200678f83398151915281018054935190951661010002610100600160a81b0319921515929092166001600160a81b0319909316929092171790925551600080516020620067af83398151915290910155565b60008030604051620004059062000e4f565b60808082526012908201527129b6b7b7ba34102637bb32902837ba34b7b760711b60a082015260c060208201819052600390820152620534c560ec1b60e082015260ff90921660408301526001600160a01b0316606082015261010001604051809103906000f0801580156200047f573d6000803e3d6000fd5b5090506200051d81624c4b406040805160608101825260018082526001600160a01b03948516602083019081529282019384526002805491820181556000819052915191026000805160206200678f83398151915281018054935190951661010002610100600160a81b0319921515929092166001600160a81b0319909316929092171790925551600080516020620067af83398151915290910155565b6000601230604051620005309062000e4f565b6080808252600f908201526e21bab93b32902220a7902a37b5b2b760891b60a082015260c0602082018190526003908201526221a92b60e91b60e082015260ff90921660408301526001600160a01b0316606082015261010001604051809103906000f080158015620005a7573d6000803e3d6000fd5b5090506200064c8169014542ba12a337c000006040805160608101825260018082526001600160a01b03948516602083019081529282019384526002805491820181556000819052915191026000805160206200678f83398151915281018054935190951661010002610100600160a81b0319921515929092166001600160a81b0319909316929092171790925551600080516020620067af83398151915290910155565b60006012306040516200065f9062000e41565b6080808252600d908201526c2a32b9ba3732ba102a37b5b2b760991b60a082015260c06020820181905260049082015263151154d560e21b60e082015260ff90921660408301526001600160a01b0316606082015261010001604051809103906000f080158015620006d5573d6000803e3d6000fd5b5090506200077a8169021e19e0c9bab24000006040805160608101825260018082526001600160a01b03948516602083019081529282019384526002805491820181556000819052915191026000805160206200678f83398151915281018054935190951661010002610100600160a81b0319921515929092166001600160a81b0319909316929092171790925551600080516020620067af83398151915290910155565b6000600a306040516200078d9062000e5d565b60808082526017908201527f4d6174746572204c61627320547269616c20546f6b656e00000000000000000060a082015260c060208201819052600490820152631353151560e21b60e082015260ff90921660408301526001600160a01b0316606082015261010001604051809103906000f08015801562000813573d6000803e3d6000fd5b509050620008b48165048c273950006040805160608101825260018082526001600160a01b03948516602083019081529282019384526002805491820181556000819052915191026000805160206200678f83398151915281018054935190951661010002610100600160a81b0319921515929092166001600160a81b0319909316929092171790925551600080516020620067af83398151915290910155565b6000601230604051620008c79062000e5d565b608080825260099082015268536869626120496e7560b81b60a082015260c0602082018190526004908201526329a424a160e11b60e082015260ff90921660408301526001600160a01b0316606082015261010001604051809103906000f08015801562000939573d6000803e3d6000fd5b509050620009e0816b019d971e4fe8401e740000006040805160608101825260018082526001600160a01b03948516602083019081529282019384526002805491820181556000819052915191026000805160206200678f83398151915281018054935190951661010002610100600160a81b0319921515929092166001600160a81b0319909316929092171790925551600080516020620067af83398151915290910155565b6000600830604051620009f39062000e4f565b62000a0092919062000e6b565b604051809103906000f08015801562000a1d573d6000803e3d6000fd5b50905062000abc81630ee6b2806040805160608101825260018082526001600160a01b03948516602083019081529282019384526002805491820181556000819052915191026000805160206200678f83398151915281018054935190951661010002610100600160a81b0319921515929092166001600160a81b0319909316929092171790925551600080516020620067af83398151915290910155565b600060123060405162000acf9062000e4f565b6080808252601190820152702634b2379029ba30b5b2b21022ba3432b960791b60a082015260c060208201819052600590820152640e6e88aa8960db1b60e082015260ff90921660408301526001600160a01b0316606082015261010001604051809103906000f08015801562000b4a573d6000803e3d6000fd5b50905062000bed81674563918244f400006040805160608101825260018082526001600160a01b03948516602083019081529282019384526002805491820181556000819052915191026000805160206200678f83398151915281018054935190951661010002610100600160a81b0319921515929092166001600160a81b0319909316929092171790925551600080516020620067af83398151915290910155565b600060123060405162000c009062000e4f565b60808082526004908201819052634161766560e01b60a083015260c060208301819052820152634141564560e01b60e082015260ff90921660408301526001600160a01b0316606082015261010001604051809103906000f08015801562000c6c573d6000803e3d6000fd5b50905062000d10816803cb71f51fc55800006040805160608101825260018082526001600160a01b03948516602083019081529282019384526002805491820181556000819052915191026000805160206200678f83398151915281018054935190951661010002610100600160a81b0319921515929092166001600160a81b0319909316929092171790925551600080516020620067af83398151915290910155565b600060123060405162000d239062000e4f565b60808082526005908201526426b0b5b2b960d91b60a082015260c0602082018190526003908201526226a5a960e91b60e082015260ff90921660408301526001600160a01b0316606082015261010001604051809103906000f08015801562000d90573d6000803e3d6000fd5b50905062000e3381674563918244f400006040805160608101825260018082526001600160a01b03948516602083019081529282019384526002805491820181556000819052915191026000805160206200678f83398151915281018054935190951661010002610100600160a81b0319921515929092166001600160a81b0319909316929092171790925551600080516020620067af83398151915290910155565b505050505050505050505050565b611984806200281a83390190565b611123806200419e83390190565b6114ce80620052c183390190565b60808152600062000e9260808301600681526572656e42544360d01b602082015260400190565b828103602084015262000eb881600681526572656e42544360d01b602082015260400190565b60ff95909516604084015250506001600160a01b039190911660609091015290565b6119308062000eea6000396000f3fe608060405234801561001057600080fd5b506004361061011b5760003560e01c80636b61b349116100b2578063925489a811610081578063d1058e5911610066578063d1058e591461029a578063ea2ed2fc146102a2578063f2fde38b146102d057600080fd5b8063925489a81461027457806395f6dc6d1461028757600080fd5b80636b61b349146102115780636d70f7ae14610231578063715018a6146102445780638da5cb5b1461024c57600080fd5b80632dfdedd0116100ee5780632dfdedd0146101c5578063379607f5146101da57806347259db2146101ed578063558a7297146101fe57600080fd5b80630d4d1513146101205780630f6a82b81461013557806313e7c9d81461014857806315f7a9a514610180575b600080fd5b61013361012e36600461154c565b6102e3565b005b6101336101433660046115a3565b610409565b61016b6101563660046115cf565b60016020526000908152604090205460ff1681565b60405190151581526020015b60405180910390f35b61019361018e3660046115f3565b61055d565b60408051931515845273ffffffffffffffffffffffffffffffffffffffff909216602084015290820152606001610177565b6101cd6105ab565b604051610177919061160c565b6101336101e83660046115f3565b61063f565b600254604051908152602001610177565b61013361020c36600461167d565b6108d7565b61022461021f3660046115cf565b6109ca565b60405161017791906116d8565b61016b61023f3660046115cf565b610b38565b610133610b8c565b60005460405173ffffffffffffffffffffffffffffffffffffffff9091168152602001610177565b610133610282366004611776565b610c35565b610133610295366004611852565b610e99565b610133611193565b61016b6102b036600461187e565b600360209081526000928352604080842090915290825290205460ff1681565b6101336102de3660046115cf565b611369565b6102ec33610b38565b61037c576040517f08c379a0000000000000000000000000000000000000000000000000000000008152602060048201526024808201527f4f70657261746f72733a2043616c6c6572206973206e6f7420616e206f70657260448201527f61746f720000000000000000000000000000000000000000000000000000000060648201526084015b60405180910390fd5b6040517f40c10f1900000000000000000000000000000000000000000000000000000000815273ffffffffffffffffffffffffffffffffffffffff8281166004830152602482018490528416906340c10f1990604401600060405180830381600087803b1580156103ec57600080fd5b505af1158015610400573d6000803e3d6000fd5b50505050505050565b61041233610b38565b61049d576040517f08c379a0000000000000000000000000000000000000000000000000000000008152602060048201526024808201527f4f70657261746f72733a2043616c6c6572206973206e6f7420616e206f70657260448201527f61746f72000000000000000000000000000000000000000000000000000000006064820152608401610373565b6002548210610508576040517f08c379a000000000000000000000000000000000000000000000000000000000815260206004820152600f60248201527f44726970206e6f742065786973747300000000000000000000000000000000006044820152606401610373565b806002838154811061051c5761051c6118ae565b6000918252602090912060029091020180547fffffffffffffffffffffffffffffffffffffffffffffffffffffffffffffff00169115159190911790555050565b6002818154811061056d57600080fd5b60009182526020909120600290910201805460019091015460ff8216925061010090910473ffffffffffffffffffffffffffffffffffffffff169083565b60606002805480602002602001604051908101604052809291908181526020016000905b828210156106365760008481526020908190206040805160608101825260028602909201805460ff811615158452610100900473ffffffffffffffffffffffffffffffffffffffff16838501526001908101549183019190915290835290920191016105cf565b50505050905090565b60025481106106aa576040517f08c379a000000000000000000000000000000000000000000000000000000000815260206004820152600f60248201527f44726970206e6f742065786973747300000000000000000000000000000000006044820152606401610373565b6000600282815481106106bf576106bf6118ae565b600091825260209182902060408051606081018252600293909302909101805460ff8116151580855261010090910473ffffffffffffffffffffffffffffffffffffffff16948401949094526001015490820152915061077b576040517f08c379a000000000000000000000000000000000000000000000000000000000815260206004820152601260248201527f44726970206973206e6f742061637469766500000000000000000000000000006044820152606401610373565b600082815260036020908152604080832033845290915290205460ff16156107ff576040517f08c379a000000000000000000000000000000000000000000000000000000000815260206004820152601460248201527f4472697020616c726561647920636c61696d65640000000000000000000000006044820152606401610373565b6000828152600360209081526040808320338085529083529281902080547fffffffffffffffffffffffffffffffffffffffffffffffffffffffffffffff00166001179055908301518382015191517f40c10f190000000000000000000000000000000000000000000000000000000081526004810193909352602483019190915273ffffffffffffffffffffffffffffffffffffffff16906340c10f1990604401600060405180830381600087803b1580156108bb57600080fd5b505af11580156108cf573d6000803e3d6000fd5b505050505050565b336108f760005473ffffffffffffffffffffffffffffffffffffffff1690565b73ffffffffffffffffffffffffffffffffffffffff1614610974576040517f08c379a000000000000000000000000000000000000000000000000000000000815260206004820181905260248201527f4f776e61626c653a2063616c6c6572206973206e6f7420746865206f776e65726044820152606401610373565b73ffffffffffffffffffffffffffffffffffffffff91909116600090815260016020526040902080547fffffffffffffffffffffffffffffffffffffffffffffffffffffffffffffff0016911515919091179055565b6002546060908067ffffffffffffffff8111156109e9576109e9611747565b604051908082528060200260200182016040528015610a12578160200160208202803683370190505b50915060005b81811015610b3157600060028281548110610a3557610a356118ae565b6000918252602080832060029092029091015484835260038252604080842073ffffffffffffffffffffffffffffffffffffffff8a16855290925291205460ff9182169250168115610ad65780610a8d576000610a90565b60015b858481518110610aa257610aa26118ae565b60200260200101906003811115610abb57610abb6116a9565b90816003811115610ace57610ace6116a9565b905250610b27565b80610ae2576002610ae5565b60035b858481518110610af757610af76118ae565b60200260200101906003811115610b1057610b106116a9565b90816003811115610b2357610b236116a9565b9052505b5050600101610a18565b5050919050565b73ffffffffffffffffffffffffffffffffffffffff811660009081526001602052604081205460ff1680610b86575060005473ffffffffffffffffffffffffffffffffffffffff8381169116145b92915050565b33610bac60005473ffffffffffffffffffffffffffffffffffffffff1690565b73ffffffffffffffffffffffffffffffffffffffff1614610c29576040517f08c379a000000000000000000000000000000000000000000000000000000000815260206004820181905260248201527f4f776e61626c653a2063616c6c6572206973206e6f7420746865206f776e65726044820152606401610373565b610c3360006114b5565b565b6002546000805b8351811015610e58576000848281518110610c5957610c596118ae565b60200260200101519050838110610ccc576040517f08c379a000000000000000000000000000000000000000000000000000000000815260206004820152600f60248201527f44726970206e6f742065786973747300000000000000000000000000000000006044820152606401610373565b600060028281548110610ce157610ce16118ae565b600091825260209182902060408051606081018252600293909302909101805460ff8116151580855261010090910473ffffffffffffffffffffffffffffffffffffffff169484019490945260010154908201529150610d45575050600101610c3c565b600082815260036020908152604080832033845290915290205460ff1615610d71575050600101610c3c565b6000828152600360209081526040808320338085529083529281902080547fffffffffffffffffffffffffffffffffffffffffffffffffffffffffffffff00166001179055908301518382015191517f40c10f190000000000000000000000000000000000000000000000000000000081526004810193909352602483019190915273ffffffffffffffffffffffffffffffffffffffff16906340c10f1990604401600060405180830381600087803b158015610e2d57600080fd5b505af1158015610e41573d6000803e3d6000fd5b505050508260010192508360010193505050610c3c565b50825160408051918252602082018390527fc5da00f1943effdc3862764b16ce14732a7c2ddc2f939aed2be23b8c60888a6e910160405180910390a1505050565b610ea233610b38565b610f2d576040517f08c379a0000000000000000000000000000000000000000000000000000000008152602060048201526024808201527f4f70657261746f72733a2043616c6c6572206973206e6f7420616e206f70657260448201527f61746f72000000000000000000000000000000000000000000000000000000006064820152608401610373565b3073ffffffffffffffffffffffffffffffffffffffff168273ffffffffffffffffffffffffffffffffffffffff1663de5f72fd6040518163ffffffff1660e01b8152600401602060405180830381865afa158015610f8f573d6000803e3d6000fd5b505050506040513d601f19601f82011682018060405250810190610fb391906118dd565b73ffffffffffffffffffffffffffffffffffffffff1614611030576040517f08c379a000000000000000000000000000000000000000000000000000000000815260206004820152601560248201527f496e76616c696420746f6b656e20746f206472697000000000000000000000006044820152606401610373565b8060000361109a576040517f08c379a000000000000000000000000000000000000000000000000000000000815260206004820152600e60248201527f496e76616c696420616d6f756e740000000000000000000000000000000000006044820152606401610373565b61118f828260408051606081018252600180825273ffffffffffffffffffffffffffffffffffffffff948516602083019081529282019384526002805491820181556000819052915191027f405787fa12a823e0f2b7631cc41b3ba8828b3321ca811111fa75cd3aa3bb5ace810180549351909516610100027fffffffffffffffffffffff0000000000000000000000000000000000000000ff921515929092167fffffffffffffffffffffff0000000000000000000000000000000000000000009093169290921717909255517f405787fa12a823e0f2b7631cc41b3ba8828b3321ca811111fa75cd3aa3bb5acf90910155565b5050565b6002546000805b8281101561132b576000600282815481106111b7576111b76118ae565b600091825260209182902060408051606081018252600293909302909101805460ff8116151580855261010090910473ffffffffffffffffffffffffffffffffffffffff16948401949094526001015490820152915061121a575060010161119a565b600082815260036020908152604080832033845290915290205460ff1615611245575060010161119a565b6000828152600360209081526040808320338085529083529281902080547fffffffffffffffffffffffffffffffffffffffffffffffffffffffffffffff00166001179055908301518382015191517f40c10f190000000000000000000000000000000000000000000000000000000081526004810193909352602483019190915273ffffffffffffffffffffffffffffffffffffffff16906340c10f1990604401600060405180830381600087803b15801561130157600080fd5b505af1158015611315573d6000803e3d6000fd5b505050508160010191508260010192505061119a565b5060408051838152602081018390527fc5da00f1943effdc3862764b16ce14732a7c2ddc2f939aed2be23b8c60888a6e910160405180910390a15050565b3361138960005473ffffffffffffffffffffffffffffffffffffffff1690565b73ffffffffffffffffffffffffffffffffffffffff1614611406576040517f08c379a000000000000000000000000000000000000000000000000000000000815260206004820181905260248201527f4f776e61626c653a2063616c6c6572206973206e6f7420746865206f776e65726044820152606401610373565b73ffffffffffffffffffffffffffffffffffffffff81166114a9576040517f08c379a000000000000000000000000000000000000000000000000000000000815260206004820152602660248201527f4f776e61626c653a206e6577206f776e657220697320746865207a65726f206160448201527f64647265737300000000000000000000000000000000000000000000000000006064820152608401610373565b6114b2816114b5565b50565b6000805473ffffffffffffffffffffffffffffffffffffffff8381167fffffffffffffffffffffffff0000000000000000000000000000000000000000831681178455604051919092169283917f8be0079c531659141344cd1fd0a4f28419497f9722a3daafe3b4186f6b6457e09190a35050565b73ffffffffffffffffffffffffffffffffffffffff811681146114b257600080fd5b60008060006060848603121561156157600080fd5b833561156c8161152a565b92506020840135915060408401356115838161152a565b809150509250925092565b8035801515811461159e57600080fd5b919050565b600080604083850312156115b657600080fd5b823591506115c66020840161158e565b90509250929050565b6000602082840312156115e157600080fd5b81356115ec8161152a565b9392505050565b60006020828403121561160557600080fd5b5035919050565b602080825282518282018190526000919060409081850190868401855b828110156116705781518051151585528681015173ffffffffffffffffffffffffffffffffffffffff16878601528501518585015260609093019290850190600101611629565b5091979650505050505050565b6000806040838503121561169057600080fd5b823561169b8161152a565b91506115c66020840161158e565b7f4e487b7100000000000000000000000000000000000000000000000000000000600052602160045260246000fd5b602080825282518282018190526000919084820190604085019084805b828110156116705784516004808210611734577f4e487b7100000000000000000000000000000000000000000000000000000000845260218152602484fd5b50845293850193928501926001016116f5565b7f4e487b7100000000000000000000000000000000000000000000000000000000600052604160045260246000fd5b6000602080838503121561178957600080fd5b823567ffffffffffffffff808211156117a157600080fd5b818501915085601f8301126117b557600080fd5b8135818111156117c7576117c7611747565b8060051b6040517fffffffffffffffffffffffffffffffffffffffffffffffffffffffffffffffe0603f8301168101818110858211171561180a5761180a611747565b60405291825284820192508381018501918883111561182857600080fd5b938501935b828510156118465784358452938501939285019261182d565b98975050505050505050565b6000806040838503121561186557600080fd5b82356118708161152a565b946020939093013593505050565b6000806040838503121561189157600080fd5b8235915060208301356118a38161152a565b809150509250929050565b7f4e487b7100000000000000000000000000000000000000000000000000000000600052603260045260246000fd5b6000602082840312156118ef57600080fd5b81516115ec8161152a56fea2646970667358221220e22e6ec61d972100e6e5eb4cb9e9da7a3646c12d51e6f88a983557ec305a851064736f6c634300080f003360c06040523480156200001157600080fd5b5060405162001984380380620019848339810160408190526200003491620001ee565b83838383838383600362000049848262000321565b50600462000058838262000321565b506005805460ff191660ff9290921691909117905550506001600160a01b0316608090815287516020808a0191909120604080517f8b73c3c69bb8fe3d512ecc4cf759cc79239f7b179b0ffacaa9a75d522b39400f938101939093528201527fc89efdaa54c0f20c7adf612882df0950f5a951637e0307cdcb4c672f298b8bc66060820152610118918101919091523060a082015260c0019250620000fb915050565b60408051601f19818403018152919052805160209091012060a05250620003ed92505050565b634e487b7160e01b600052604160045260246000fd5b600082601f8301126200014957600080fd5b81516001600160401b038082111562000166576200016662000121565b604051601f8301601f19908116603f0116810190828211818310171562000191576200019162000121565b81604052838152602092508683858801011115620001ae57600080fd5b600091505b83821015620001d25785820183015181830184015290820190620001b3565b83821115620001e45760008385830101525b9695505050505050565b600080600080608085870312156200020557600080fd5b84516001600160401b03808211156200021d57600080fd5b6200022b8883890162000137565b955060208701519150808211156200024257600080fd5b50620002518782880162000137565b935050604085015160ff811681146200026957600080fd5b60608601519092506001600160a01b03811681146200028757600080fd5b939692955090935050565b600181811c90821680620002a757607f821691505b602082108103620002c857634e487b7160e01b600052602260045260246000fd5b50919050565b601f8211156200031c57600081815260208120601f850160051c81016020861015620002f75750805b601f850160051c820191505b81811015620003185782815560010162000303565b5050505b505050565b81516001600160401b038111156200033d576200033d62000121565b62000355816200034e845462000292565b84620002ce565b602080601f8311600181146200038d5760008415620003745750858301515b600019600386901b1c1916600185901b17855562000318565b600085815260208120601f198616915b82811015620003be578886015182559484019460019091019084016200039d565b5085821015620003dd5787850151600019600388901b60f8161c191681555b5050505050600190811b01905550565b60805160a05161156362000421600039600081816101c40152610735015260008181610308015261048101526115636000f3fe608060405234801561001057600080fd5b506004361061011b5760003560e01c806340c10f19116100b2578063a457c2d711610081578063d505accf11610066578063d505accf146102aa578063dd62ed3e146102bd578063de5f72fd1461030357600080fd5b8063a457c2d714610284578063a9059cbb1461029757600080fd5b806340c10f19146101fb57806370a08231146102105780637ecebe001461024657806395d89b411461027c57600080fd5b806330adf81f116100ee57806330adf81f14610186578063313ce567146101ad5780633644e515146101c257806339509351146101e857600080fd5b806306fdde0314610120578063095ea7b31461013e57806318160ddd1461016157806323b872dd14610173575b600080fd5b61012861034f565b6040516101359190611262565b60405180910390f35b61015161014c3660046112fe565b6103e1565b6040519015158152602001610135565b6002545b604051908152602001610135565b610151610181366004611328565b6103f9565b6101657f6e71edae12b1b97f4d1f60370fef10105fa2faae0126114a169c64845d6126c981565b60055460405160ff9091168152602001610135565b7f0000000000000000000000000000000000000000000000000000000000000000610165565b6101516101f63660046112fe565b61041d565b61020e6102093660046112fe565b610469565b005b61016561021e366004611364565b73ffffffffffffffffffffffffffffffffffffffff1660009081526020819052604090205490565b610165610254366004611364565b73ffffffffffffffffffffffffffffffffffffffff1660009081526006602052604090205490565b61012861051b565b6101516102923660046112fe565b61052a565b6101516102a53660046112fe565b6105fb565b61020e6102b8366004611386565b610609565b6101656102cb3660046113f9565b73ffffffffffffffffffffffffffffffffffffffff918216600090815260016020908152604080832093909416825291909152205490565b61032a7f000000000000000000000000000000000000000000000000000000000000000081565b60405173ffffffffffffffffffffffffffffffffffffffff9091168152602001610135565b60606003805461035e9061142c565b80601f016020809104026020016040519081016040528092919081815260200182805461038a9061142c565b80156103d75780601f106103ac576101008083540402835291602001916103d7565b820191906000526020600020905b8154815290600101906020018083116103ba57829003601f168201915b5050505050905090565b6000336103ef81858561086e565b5060019392505050565b600033610407858285610a21565b610412858585610af8565b506001949350505050565b33600081815260016020908152604080832073ffffffffffffffffffffffffffffffffffffffff871684529091528120549091906103ef90829086906104649087906114ae565b61086e565b3373ffffffffffffffffffffffffffffffffffffffff7f0000000000000000000000000000000000000000000000000000000000000000161461050d576040517f08c379a000000000000000000000000000000000000000000000000000000000815260206004820152600a60248201527f4e6f74206661756365740000000000000000000000000000000000000000000060448201526064015b60405180910390fd5b6105178282610dab565b5050565b60606004805461035e9061142c565b33600081815260016020908152604080832073ffffffffffffffffffffffffffffffffffffffff87168452909152812054909190838110156105ee576040517f08c379a000000000000000000000000000000000000000000000000000000000815260206004820152602560248201527f45524332303a2064656372656173656420616c6c6f77616e63652062656c6f7760448201527f207a65726f0000000000000000000000000000000000000000000000000000006064820152608401610504565b610412828686840361086e565b6000336103ef818585610af8565b83421115610673576040517f08c379a000000000000000000000000000000000000000000000000000000000815260206004820152600760248201527f45585049524544000000000000000000000000000000000000000000000000006044820152606401610504565b73ffffffffffffffffffffffffffffffffffffffff8716600090815260066020526040812080547f6e71edae12b1b97f4d1f60370fef10105fa2faae0126114a169c64845d6126c9918a918a918a9190866106cd836114c6565b9091555060408051602081019690965273ffffffffffffffffffffffffffffffffffffffff94851690860152929091166060840152608083015260a082015260c0810186905260e00160405160208183030381529060405280519060200120905060006107b07f0000000000000000000000000000000000000000000000000000000000000000836040517f19010000000000000000000000000000000000000000000000000000000000006020820152602281018390526042810182905260009060620160405160208183030381529060405280519060200120905092915050565b905060006107c082878787610ecb565b90508973ffffffffffffffffffffffffffffffffffffffff168173ffffffffffffffffffffffffffffffffffffffff1614610857576040517f08c379a000000000000000000000000000000000000000000000000000000000815260206004820152601160248201527f494e56414c49445f5349474e41545552450000000000000000000000000000006044820152606401610504565b6108628a8a8a61086e565b50505050505050505050565b73ffffffffffffffffffffffffffffffffffffffff8316610910576040517f08c379a0000000000000000000000000000000000000000000000000000000008152602060048201526024808201527f45524332303a20617070726f76652066726f6d20746865207a65726f2061646460448201527f72657373000000000000000000000000000000000000000000000000000000006064820152608401610504565b73ffffffffffffffffffffffffffffffffffffffff82166109b3576040517f08c379a000000000000000000000000000000000000000000000000000000000815260206004820152602260248201527f45524332303a20617070726f766520746f20746865207a65726f20616464726560448201527f73730000000000000000000000000000000000000000000000000000000000006064820152608401610504565b73ffffffffffffffffffffffffffffffffffffffff83811660008181526001602090815260408083209487168084529482529182902085905590518481527f8c5be1e5ebec7d5bd14f71427d1e84f3dd0314c0f7b2291e5b200ac8c7c3b925910160405180910390a3505050565b73ffffffffffffffffffffffffffffffffffffffff8381166000908152600160209081526040808320938616835292905220547fffffffffffffffffffffffffffffffffffffffffffffffffffffffffffffffff8114610af25781811015610ae5576040517f08c379a000000000000000000000000000000000000000000000000000000000815260206004820152601d60248201527f45524332303a20696e73756666696369656e7420616c6c6f77616e63650000006044820152606401610504565b610af2848484840361086e565b50505050565b73ffffffffffffffffffffffffffffffffffffffff8316610b9b576040517f08c379a000000000000000000000000000000000000000000000000000000000815260206004820152602560248201527f45524332303a207472616e736665722066726f6d20746865207a65726f20616460448201527f64726573730000000000000000000000000000000000000000000000000000006064820152608401610504565b73ffffffffffffffffffffffffffffffffffffffff8216610c3e576040517f08c379a000000000000000000000000000000000000000000000000000000000815260206004820152602360248201527f45524332303a207472616e7366657220746f20746865207a65726f206164647260448201527f65737300000000000000000000000000000000000000000000000000000000006064820152608401610504565b73ffffffffffffffffffffffffffffffffffffffff831660009081526020819052604090205481811015610cf4576040517f08c379a000000000000000000000000000000000000000000000000000000000815260206004820152602660248201527f45524332303a207472616e7366657220616d6f756e742065786365656473206260448201527f616c616e636500000000000000000000000000000000000000000000000000006064820152608401610504565b73ffffffffffffffffffffffffffffffffffffffff808516600090815260208190526040808220858503905591851681529081208054849290610d389084906114ae565b925050819055508273ffffffffffffffffffffffffffffffffffffffff168473ffffffffffffffffffffffffffffffffffffffff167fddf252ad1be2c89b69c2b068fc378daa952ba7f163c4a11628f55a4df523b3ef84604051610d9e91815260200190565b60405180910390a3610af2565b73ffffffffffffffffffffffffffffffffffffffff8216610e28576040517f08c379a000000000000000000000000000000000000000000000000000000000815260206004820152601f60248201527f45524332303a206d696e7420746f20746865207a65726f2061646472657373006044820152606401610504565b8060026000828254610e3a91906114ae565b909155505073ffffffffffffffffffffffffffffffffffffffff821660009081526020819052604081208054839290610e749084906114ae565b909155505060405181815273ffffffffffffffffffffffffffffffffffffffff8316906000907fddf252ad1be2c89b69c2b068fc378daa952ba7f163c4a11628f55a4df523b3ef9060200160405180910390a35050565b6000806000610edc87878787610ef3565b91509150610ee98161100b565b5095945050505050565b6000807f7fffffffffffffffffffffffffffffff5d576e7357a4501ddfe92f46681b20a0831115610f2a5750600090506003611002565b8460ff16601b14158015610f4257508460ff16601c14155b15610f535750600090506004611002565b6040805160008082526020820180845289905260ff881692820192909252606081018690526080810185905260019060a0016020604051602081039080840390855afa158015610fa7573d6000803e3d6000fd5b50506040517fffffffffffffffffffffffffffffffffffffffffffffffffffffffffffffffe0015191505073ffffffffffffffffffffffffffffffffffffffff8116610ffb57600060019250925050611002565b9150600090505b94509492505050565b600081600481111561101f5761101f6114fe565b036110275750565b600181600481111561103b5761103b6114fe565b036110a2576040517f08c379a000000000000000000000000000000000000000000000000000000000815260206004820152601860248201527f45434453413a20696e76616c6964207369676e617475726500000000000000006044820152606401610504565b60028160048111156110b6576110b66114fe565b0361111d576040517f08c379a000000000000000000000000000000000000000000000000000000000815260206004820152601f60248201527f45434453413a20696e76616c6964207369676e6174757265206c656e677468006044820152606401610504565b6003816004811115611131576111316114fe565b036111be576040517f08c379a000000000000000000000000000000000000000000000000000000000815260206004820152602260248201527f45434453413a20696e76616c6964207369676e6174757265202773272076616c60448201527f75650000000000000000000000000000000000000000000000000000000000006064820152608401610504565b60048160048111156111d2576111d26114fe565b0361125f576040517f08c379a000000000000000000000000000000000000000000000000000000000815260206004820152602260248201527f45434453413a20696e76616c6964207369676e6174757265202776272076616c60448201527f75650000000000000000000000000000000000000000000000000000000000006064820152608401610504565b50565b600060208083528351808285015260005b8181101561128f57858101830151858201604001528201611273565b818111156112a1576000604083870101525b50601f017fffffffffffffffffffffffffffffffffffffffffffffffffffffffffffffffe016929092016040019392505050565b803573ffffffffffffffffffffffffffffffffffffffff811681146112f957600080fd5b919050565b6000806040838503121561131157600080fd5b61131a836112d5565b946020939093013593505050565b60008060006060848603121561133d57600080fd5b611346846112d5565b9250611354602085016112d5565b9150604084013590509250925092565b60006020828403121561137657600080fd5b61137f826112d5565b9392505050565b600080600080600080600060e0888a0312156113a157600080fd5b6113aa886112d5565b96506113b8602089016112d5565b95506040880135945060608801359350608088013560ff811681146113dc57600080fd5b9699959850939692959460a0840135945060c09093013592915050565b6000806040838503121561140c57600080fd5b611415836112d5565b9150611423602084016112d5565b90509250929050565b600181811c9082168061144057607f821691505b602082108103611479577f4e487b7100000000000000000000000000000000000000000000000000000000600052602260045260246000fd5b50919050565b7f4e487b7100000000000000000000000000000000000000000000000000000000600052601160045260246000fd5b600082198211156114c1576114c161147f565b500190565b60007fffffffffffffffffffffffffffffffffffffffffffffffffffffffffffffffff82036114f7576114f761147f565b5060010190565b7f4e487b7100000000000000000000000000000000000000000000000000000000600052602160045260246000fdfea26469706673582212200e463eb7d90e03e7b7809aa925f2d44389d1597dca477760ee09e2c52cd7b61864736f6c634300080f003360a06040523480156200001157600080fd5b50604051620011233803806200112383398101604081905262000034916200014e565b838383600362000045848262000281565b50600462000054838262000281565b506005805460ff191660ff9290921691909117905550506001600160a01b0316608052506200034d915050565b634e487b7160e01b600052604160045260246000fd5b600082601f830112620000a957600080fd5b81516001600160401b0380821115620000c657620000c662000081565b604051601f8301601f19908116603f01168101908282118183101715620000f157620000f162000081565b816040528381526020925086838588010111156200010e57600080fd5b600091505b8382101562000132578582018301518183018401529082019062000113565b83821115620001445760008385830101525b9695505050505050565b600080600080608085870312156200016557600080fd5b84516001600160401b03808211156200017d57600080fd5b6200018b8883890162000097565b95506020870151915080821115620001a257600080fd5b50620001b18782880162000097565b935050604085015160ff81168114620001c957600080fd5b60608601519092506001600160a01b0381168114620001e757600080fd5b939692955090935050565b600181811c908216806200020757607f821691505b6020821081036200022857634e487b7160e01b600052602260045260246000fd5b50919050565b601f8211156200027c57600081815260208120601f850160051c81016020861015620002575750805b601f850160051c820191505b81811015620002785782815560010162000263565b5050505b505050565b81516001600160401b038111156200029d576200029d62000081565b620002b581620002ae8454620001f2565b846200022e565b602080601f831160018114620002ed5760008415620002d45750858301515b600019600386901b1c1916600185901b17855562000278565b600085815260208120601f198616915b828110156200031e57888601518255948401946001909101908401620002fd565b50858210156200033d5787850151600019600388901b60f8161c191681555b5050505050600190811b01905550565b608051610db3620003706000396000818161023601526103af0152610db36000f3fe608060405234801561001057600080fd5b50600436106100df5760003560e01c806340c10f191161008c578063a457c2d711610066578063a457c2d7146101c5578063a9059cbb146101d8578063dd62ed3e146101eb578063de5f72fd1461023157600080fd5b806340c10f191461017257806370a082311461018757806395d89b41146101bd57600080fd5b806323b872dd116100bd57806323b872dd14610137578063313ce5671461014a578063395093511461015f57600080fd5b806306fdde03146100e4578063095ea7b31461010257806318160ddd14610125575b600080fd5b6100ec61027d565b6040516100f99190610b94565b60405180910390f35b610115610110366004610c30565b61030f565b60405190151581526020016100f9565b6002545b6040519081526020016100f9565b610115610145366004610c5a565b610327565b60055460405160ff90911681526020016100f9565b61011561016d366004610c30565b61034b565b610185610180366004610c30565b610397565b005b610129610195366004610c96565b73ffffffffffffffffffffffffffffffffffffffff1660009081526020819052604090205490565b6100ec610449565b6101156101d3366004610c30565b610458565b6101156101e6366004610c30565b610529565b6101296101f9366004610cb8565b73ffffffffffffffffffffffffffffffffffffffff918216600090815260016020908152604080832093909416825291909152205490565b6102587f000000000000000000000000000000000000000000000000000000000000000081565b60405173ffffffffffffffffffffffffffffffffffffffff90911681526020016100f9565b60606003805461028c90610ceb565b80601f01602080910402602001604051908101604052809291908181526020018280546102b890610ceb565b80156103055780601f106102da57610100808354040283529160200191610305565b820191906000526020600020905b8154815290600101906020018083116102e857829003601f168201915b5050505050905090565b60003361031d818585610537565b5060019392505050565b6000336103358582856106ea565b6103408585856107c1565b506001949350505050565b33600081815260016020908152604080832073ffffffffffffffffffffffffffffffffffffffff8716845290915281205490919061031d9082908690610392908790610d3e565b610537565b3373ffffffffffffffffffffffffffffffffffffffff7f0000000000000000000000000000000000000000000000000000000000000000161461043b576040517f08c379a000000000000000000000000000000000000000000000000000000000815260206004820152600a60248201527f4e6f74206661756365740000000000000000000000000000000000000000000060448201526064015b60405180910390fd5b6104458282610a74565b5050565b60606004805461028c90610ceb565b33600081815260016020908152604080832073ffffffffffffffffffffffffffffffffffffffff871684529091528120549091908381101561051c576040517f08c379a000000000000000000000000000000000000000000000000000000000815260206004820152602560248201527f45524332303a2064656372656173656420616c6c6f77616e63652062656c6f7760448201527f207a65726f0000000000000000000000000000000000000000000000000000006064820152608401610432565b6103408286868403610537565b60003361031d8185856107c1565b73ffffffffffffffffffffffffffffffffffffffff83166105d9576040517f08c379a0000000000000000000000000000000000000000000000000000000008152602060048201526024808201527f45524332303a20617070726f76652066726f6d20746865207a65726f2061646460448201527f72657373000000000000000000000000000000000000000000000000000000006064820152608401610432565b73ffffffffffffffffffffffffffffffffffffffff821661067c576040517f08c379a000000000000000000000000000000000000000000000000000000000815260206004820152602260248201527f45524332303a20617070726f766520746f20746865207a65726f20616464726560448201527f73730000000000000000000000000000000000000000000000000000000000006064820152608401610432565b73ffffffffffffffffffffffffffffffffffffffff83811660008181526001602090815260408083209487168084529482529182902085905590518481527f8c5be1e5ebec7d5bd14f71427d1e84f3dd0314c0f7b2291e5b200ac8c7c3b925910160405180910390a3505050565b73ffffffffffffffffffffffffffffffffffffffff8381166000908152600160209081526040808320938616835292905220547fffffffffffffffffffffffffffffffffffffffffffffffffffffffffffffffff81146107bb57818110156107ae576040517f08c379a000000000000000000000000000000000000000000000000000000000815260206004820152601d60248201527f45524332303a20696e73756666696369656e7420616c6c6f77616e63650000006044820152606401610432565b6107bb8484848403610537565b50505050565b73ffffffffffffffffffffffffffffffffffffffff8316610864576040517f08c379a000000000000000000000000000000000000000000000000000000000815260206004820152602560248201527f45524332303a207472616e736665722066726f6d20746865207a65726f20616460448201527f64726573730000000000000000000000000000000000000000000000000000006064820152608401610432565b73ffffffffffffffffffffffffffffffffffffffff8216610907576040517f08c379a000000000000000000000000000000000000000000000000000000000815260206004820152602360248201527f45524332303a207472616e7366657220746f20746865207a65726f206164647260448201527f65737300000000000000000000000000000000000000000000000000000000006064820152608401610432565b73ffffffffffffffffffffffffffffffffffffffff8316600090815260208190526040902054818110156109bd576040517f08c379a000000000000000000000000000000000000000000000000000000000815260206004820152602660248201527f45524332303a207472616e7366657220616d6f756e742065786365656473206260448201527f616c616e636500000000000000000000000000000000000000000000000000006064820152608401610432565b73ffffffffffffffffffffffffffffffffffffffff808516600090815260208190526040808220858503905591851681529081208054849290610a01908490610d3e565b925050819055508273ffffffffffffffffffffffffffffffffffffffff168473ffffffffffffffffffffffffffffffffffffffff167fddf252ad1be2c89b69c2b068fc378daa952ba7f163c4a11628f55a4df523b3ef84604051610a6791815260200190565b60405180910390a36107bb565b73ffffffffffffffffffffffffffffffffffffffff8216610af1576040517f08c379a000000000000000000000000000000000000000000000000000000000815260206004820152601f60248201527f45524332303a206d696e7420746f20746865207a65726f2061646472657373006044820152606401610432565b8060026000828254610b039190610d3e565b909155505073ffffffffffffffffffffffffffffffffffffffff821660009081526020819052604081208054839290610b3d908490610d3e565b909155505060405181815273ffffffffffffffffffffffffffffffffffffffff8316906000907fddf252ad1be2c89b69c2b068fc378daa952ba7f163c4a11628f55a4df523b3ef9060200160405180910390a35050565b600060208083528351808285015260005b81811015610bc157858101830151858201604001528201610ba5565b81811115610bd3576000604083870101525b50601f017fffffffffffffffffffffffffffffffffffffffffffffffffffffffffffffffe016929092016040019392505050565b803573ffffffffffffffffffffffffffffffffffffffff81168114610c2b57600080fd5b919050565b60008060408385031215610c4357600080fd5b610c4c83610c07565b946020939093013593505050565b600080600060608486031215610c6f57600080fd5b610c7884610c07565b9250610c8660208501610c07565b9150604084013590509250925092565b600060208284031215610ca857600080fd5b610cb182610c07565b9392505050565b60008060408385031215610ccb57600080fd5b610cd483610c07565b9150610ce260208401610c07565b90509250929050565b600181811c90821680610cff57607f821691505b602082108103610d38577f4e487b7100000000000000000000000000000000000000000000000000000000600052602260045260246000fd5b50919050565b60008219821115610d78577f4e487b7100000000000000000000000000000000000000000000000000000000600052601160045260246000fd5b50019056fea2646970667358221220d9c9c7ea36a7608ca056276ad2a9aad3600bb8d9390dee6002aba3588dedf9cb64736f6c634300080f003360a06040523480156200001157600080fd5b50604051620014ce380380620014ce833981016040819052620000349162000156565b83838383838383600362000049848262000289565b50600462000058838262000289565b506005805460ff191660ff9290921691909117905550506001600160a01b0316608052506200035595505050505050565b634e487b7160e01b600052604160045260246000fd5b600082601f830112620000b157600080fd5b81516001600160401b0380821115620000ce57620000ce62000089565b604051601f8301601f19908116603f01168101908282118183101715620000f957620000f962000089565b816040528381526020925086838588010111156200011657600080fd5b600091505b838210156200013a57858201830151818301840152908201906200011b565b838211156200014c5760008385830101525b9695505050505050565b600080600080608085870312156200016d57600080fd5b84516001600160401b03808211156200018557600080fd5b62000193888389016200009f565b95506020870151915080821115620001aa57600080fd5b50620001b9878288016200009f565b935050604085015160ff81168114620001d157600080fd5b60608601519092506001600160a01b0381168114620001ef57600080fd5b939692955090935050565b600181811c908216806200020f57607f821691505b6020821081036200023057634e487b7160e01b600052602260045260246000fd5b50919050565b601f8211156200028457600081815260208120601f850160051c810160208610156200025f5750805b601f850160051c820191505b8181101562000280578281556001016200026b565b5050505b505050565b81516001600160401b03811115620002a557620002a562000089565b620002bd81620002b68454620001fa565b8462000236565b602080601f831160018114620002f55760008415620002dc5750858301515b600019600386901b1c1916600185901b17855562000280565b600085815260208120601f198616915b82811015620003265788860151825594840194600190910190840162000305565b5085821015620003455787850151600019600388901b60f8161c191681555b5050505050600190811b01905550565b608051611156620003786000396000818161025401526104ce01526111566000f3fe608060405234801561001057600080fd5b50600436106100ea5760003560e01c806340c10f191161008c578063a457c2d711610066578063a457c2d7146101e3578063a9059cbb146101f6578063dd62ed3e14610209578063de5f72fd1461024f57600080fd5b806340c10f191461019057806370a08231146101a557806395d89b41146101db57600080fd5b806323b872dd116100c857806323b872dd14610142578063313ce56714610155578063395093511461016a5780634000aea01461017d57600080fd5b806306fdde03146100ef578063095ea7b31461010d57806318160ddd14610130575b600080fd5b6100f761029b565b6040516101049190610e31565b60405180910390f35b61012061011b366004610e74565b61032d565b6040519015158152602001610104565b6002545b604051908152602001610104565b610120610150366004610e9e565b610386565b60055460405160ff9091168152602001610104565b610120610178366004610e74565b6103e1565b61012061018b366004610f09565b610437565b6101a361019e366004610e74565b6104b6565b005b6101346101b3366004610ff2565b73ffffffffffffffffffffffffffffffffffffffff1660009081526020819052604090205490565b6100f7610568565b6101206101f1366004610e74565b610577565b610120610204366004610e74565b610653565b61013461021736600461100d565b73ffffffffffffffffffffffffffffffffffffffff918216600090815260016020908152604080832093909416825291909152205490565b6102767f000000000000000000000000000000000000000000000000000000000000000081565b60405173ffffffffffffffffffffffffffffffffffffffff9091168152602001610104565b6060600380546102aa90611040565b80601f01602080910402602001604051908101604052809291908181526020018280546102d690611040565b80156103235780601f106102f857610100808354040283529160200191610323565b820191906000526020600020905b81548152906001019060200180831161030657829003601f168201915b5050505050905090565b60008273ffffffffffffffffffffffffffffffffffffffff81161580159061036b575073ffffffffffffffffffffffffffffffffffffffff81163014155b61037457600080fd5b61037e84846106a4565b949350505050565b60008273ffffffffffffffffffffffffffffffffffffffff8116158015906103c4575073ffffffffffffffffffffffffffffffffffffffff81163014155b6103cd57600080fd5b6103d88585856106b2565b95945050505050565b33600081815260016020908152604080832073ffffffffffffffffffffffffffffffffffffffff8716845290915281205490919061042d9082908690610428908790611093565b6106cb565b5060019392505050565b6000610443848461087e565b508373ffffffffffffffffffffffffffffffffffffffff163373ffffffffffffffffffffffffffffffffffffffff167fe19260aff97b920c7df27010903aeb9c8d2be5d310a2c67824cf3f15396e4c1685856040516104a39291906110d2565b60405180910390a361042d84848461088c565b3373ffffffffffffffffffffffffffffffffffffffff7f0000000000000000000000000000000000000000000000000000000000000000161461055a576040517f08c379a000000000000000000000000000000000000000000000000000000000815260206004820152600a60248201527f4e6f74206661756365740000000000000000000000000000000000000000000060448201526064015b60405180910390fd5b610564828261091c565b5050565b6060600480546102aa90611040565b33600081815260016020908152604080832073ffffffffffffffffffffffffffffffffffffffff871684529091528120549091908381101561063b576040517f08c379a000000000000000000000000000000000000000000000000000000000815260206004820152602560248201527f45524332303a2064656372656173656420616c6c6f77616e63652062656c6f7760448201527f207a65726f0000000000000000000000000000000000000000000000000000006064820152608401610551565b61064882868684036106cb565b506001949350505050565b60008273ffffffffffffffffffffffffffffffffffffffff811615801590610691575073ffffffffffffffffffffffffffffffffffffffff81163014155b61069a57600080fd5b61037e848461087e565b60003361042d8185856106cb565b6000336106c0858285610a3c565b610648858585610b13565b73ffffffffffffffffffffffffffffffffffffffff831661076d576040517f08c379a0000000000000000000000000000000000000000000000000000000008152602060048201526024808201527f45524332303a20617070726f76652066726f6d20746865207a65726f2061646460448201527f72657373000000000000000000000000000000000000000000000000000000006064820152608401610551565b73ffffffffffffffffffffffffffffffffffffffff8216610810576040517f08c379a000000000000000000000000000000000000000000000000000000000815260206004820152602260248201527f45524332303a20617070726f766520746f20746865207a65726f20616464726560448201527f73730000000000000000000000000000000000000000000000000000000000006064820152608401610551565b73ffffffffffffffffffffffffffffffffffffffff83811660008181526001602090815260408083209487168084529482529182902085905590518481527f8c5be1e5ebec7d5bd14f71427d1e84f3dd0314c0f7b2291e5b200ac8c7c3b925910160405180910390a3505050565b60003361042d818585610b13565b6040517fa4c0ed36000000000000000000000000000000000000000000000000000000008152839073ffffffffffffffffffffffffffffffffffffffff82169063a4c0ed36906108e4903390879087906004016110eb565b600060405180830381600087803b1580156108fe57600080fd5b505af1158015610912573d6000803e3d6000fd5b5050505050505050565b73ffffffffffffffffffffffffffffffffffffffff8216610999576040517f08c379a000000000000000000000000000000000000000000000000000000000815260206004820152601f60248201527f45524332303a206d696e7420746f20746865207a65726f2061646472657373006044820152606401610551565b80600260008282546109ab9190611093565b909155505073ffffffffffffffffffffffffffffffffffffffff8216600090815260208190526040812080548392906109e5908490611093565b909155505060405181815273ffffffffffffffffffffffffffffffffffffffff8316906000907fddf252ad1be2c89b69c2b068fc378daa952ba7f163c4a11628f55a4df523b3ef9060200160405180910390a35050565b73ffffffffffffffffffffffffffffffffffffffff8381166000908152600160209081526040808320938616835292905220547fffffffffffffffffffffffffffffffffffffffffffffffffffffffffffffffff8114610b0d5781811015610b00576040517f08c379a000000000000000000000000000000000000000000000000000000000815260206004820152601d60248201527f45524332303a20696e73756666696369656e7420616c6c6f77616e63650000006044820152606401610551565b610b0d84848484036106cb565b50505050565b73ffffffffffffffffffffffffffffffffffffffff8316610bb6576040517f08c379a000000000000000000000000000000000000000000000000000000000815260206004820152602560248201527f45524332303a207472616e736665722066726f6d20746865207a65726f20616460448201527f64726573730000000000000000000000000000000000000000000000000000006064820152608401610551565b73ffffffffffffffffffffffffffffffffffffffff8216610c59576040517f08c379a000000000000000000000000000000000000000000000000000000000815260206004820152602360248201527f45524332303a207472616e7366657220746f20746865207a65726f206164647260448201527f65737300000000000000000000000000000000000000000000000000000000006064820152608401610551565b73ffffffffffffffffffffffffffffffffffffffff831660009081526020819052604090205481811015610d0f576040517f08c379a000000000000000000000000000000000000000000000000000000000815260206004820152602660248201527f45524332303a207472616e7366657220616d6f756e742065786365656473206260448201527f616c616e636500000000000000000000000000000000000000000000000000006064820152608401610551565b73ffffffffffffffffffffffffffffffffffffffff808516600090815260208190526040808220858503905591851681529081208054849290610d53908490611093565b925050819055508273ffffffffffffffffffffffffffffffffffffffff168473ffffffffffffffffffffffffffffffffffffffff167fddf252ad1be2c89b69c2b068fc378daa952ba7f163c4a11628f55a4df523b3ef84604051610db991815260200190565b60405180910390a3610b0d565b6000815180845260005b81811015610dec57602081850181015186830182015201610dd0565b81811115610dfe576000602083870101525b50601f017fffffffffffffffffffffffffffffffffffffffffffffffffffffffffffffffe0169290920160200192915050565b602081526000610e446020830184610dc6565b9392505050565b803573ffffffffffffffffffffffffffffffffffffffff81168114610e6f57600080fd5b919050565b60008060408385031215610e8757600080fd5b610e9083610e4b565b946020939093013593505050565b600080600060608486031215610eb357600080fd5b610ebc84610e4b565b9250610eca60208501610e4b565b9150604084013590509250925092565b7f4e487b7100000000000000000000000000000000000000000000000000000000600052604160045260246000fd5b600080600060608486031215610f1e57600080fd5b610f2784610e4b565b925060208401359150604084013567ffffffffffffffff80821115610f4b57600080fd5b818601915086601f830112610f5f57600080fd5b813581811115610f7157610f71610eda565b604051601f82017fffffffffffffffffffffffffffffffffffffffffffffffffffffffffffffffe0908116603f01168101908382118183101715610fb757610fb7610eda565b81604052828152896020848701011115610fd057600080fd5b8260208601602083013760006020848301015280955050505050509250925092565b60006020828403121561100457600080fd5b610e4482610e4b565b6000806040838503121561102057600080fd5b61102983610e4b565b915061103760208401610e4b565b90509250929050565b600181811c9082168061105457607f821691505b60208210810361108d577f4e487b7100000000000000000000000000000000000000000000000000000000600052602260045260246000fd5b50919050565b600082198211156110cd577f4e487b7100000000000000000000000000000000000000000000000000000000600052601160045260246000fd5b500190565b82815260406020820152600061037e6040830184610dc6565b73ffffffffffffffffffffffffffffffffffffffff841681528260208201526060604082015260006103d86060830184610dc656fea2646970667358221220f6a5a253f161b16d8ea41f8423133fd57f2ac6c4bf0eae3837b02975c9306c9164736f6c634300080f0033405787fa12a823e0f2b7631cc41b3ba8828b3321ca811111fa75cd3aa3bb5ace405787fa12a823e0f2b7631cc41b3ba8828b3321ca811111fa75cd3aa3bb5acf",
  "linkReferences": {},
  "deployedLinkReferences": {}
}