{
  "_format": "hh-sol-artifact-1",
  "contractName": "ERC20TestToken",
  "sourceName": "contracts/tokens/ERC20TestToken.sol",
  "abi": [
    {
      "inputs": [
        {
          "internalType": "string",
          "name": "name",
          "type": "string"
        },
        {
          "internalType": "string",
          "name": "symbol",
          "type": "string"
        },
        {
          "internalType": "uint8",
          "name": "decimals",
          "type": "uint8"
        },
        {
          "internalType": "address",
          "name": "_faucet",
          "type": "address"
        }
      ],
      "stateMutability": "nonpayable",
      "type": "constructor"
    },
    {
      "anonymous": false,
      "inputs": [
        {
          "indexed": true,
          "internalType": "address",
          "name": "owner",
          "type": "address"
        },
        {
          "indexed": true,
          "internalType": "address",
          "name": "spender",
          "type": "address"
        },
        {
          "indexed": false,
          "internalType": "uint256",
          "name": "value",
          "type": "uint256"
        }
      ],
      "name": "Approval",
      "type": "event"
    },
    {
      "anonymous": false,
      "inputs": [
        {
          "indexed": true,
          "internalType": "address",
          "name": "from",
          "type": "address"
        },
        {
          "indexed": true,
          "internalType": "address",
          "name": "to",
          "type": "address"
        },
        {
          "indexed": false,
          "internalType": "uint256",
          "name": "value",
          "type": "uint256"
        }
      ],
      "name": "Transfer",
      "type": "event"
    },
    {
      "inputs": [
        {
          "internalType": "address",
          "name": "owner",
          "type": "address"
        },
        {
          "internalType": "address",
          "name": "spender",
          "type": "address"
        }
      ],
      "name": "allowance",
      "outputs": [
        {
          "internalType": "uint256",
          "name": "",
          "type": "uint256"
        }
      ],
      "stateMutability": "view",
      "type": "function"
    },
    {
      "inputs": [
        {
          "internalType": "address",
          "name": "spender",
          "type": "address"
        },
        {
          "internalType": "uint256",
          "name": "amount",
          "type": "uint256"
        }
      ],
      "name": "approve",
      "outputs": [
        {
          "internalType": "bool",
          "name": "",
          "type": "bool"
        }
      ],
      "stateMutability": "nonpayable",
      "type": "function"
    },
    {
      "inputs": [
        {
          "internalType": "address",
          "name": "account",
          "type": "address"
        }
      ],
      "name": "balanceOf",
      "outputs": [
        {
          "internalType": "uint256",
          "name": "",
          "type": "uint256"
        }
      ],
      "stateMutability": "view",
      "type": "function"
    },
    {
      "inputs": [],
      "name": "decimals",
      "outputs": [
        {
          "internalType": "uint8",
          "name": "",
          "type": "uint8"
        }
      ],
      "stateMutability": "view",
      "type": "function"
    },
    {
      "inputs": [
        {
          "internalType": "address",
          "name": "spender",
          "type": "address"
        },
        {
          "internalType": "uint256",
          "name": "subtractedValue",
          "type": "uint256"
        }
      ],
      "name": "decreaseAllowance",
      "outputs": [
        {
          "internalType": "bool",
          "name": "",
          "type": "bool"
        }
      ],
      "stateMutability": "nonpayable",
      "type": "function"
    },
    {
      "inputs": [],
      "name": "faucet",
      "outputs": [
        {
          "internalType": "address",
          "name": "",
          "type": "address"
        }
      ],
      "stateMutability": "view",
      "type": "function"
    },
    {
      "inputs": [
        {
          "internalType": "address",
          "name": "spender",
          "type": "address"
        },
        {
          "internalType": "uint256",
          "name": "addedValue",
          "type": "uint256"
        }
      ],
      "name": "increaseAllowance",
      "outputs": [
        {
          "internalType": "bool",
          "name": "",
          "type": "bool"
        }
      ],
      "stateMutability": "nonpayable",
      "type": "function"
    },
    {
      "inputs": [
        {
          "internalType": "address",
          "name": "to",
          "type": "address"
        },
        {
          "internalType": "uint256",
          "name": "value",
          "type": "uint256"
        }
      ],
      "name": "mint",
      "outputs": [],
      "stateMutability": "nonpayable",
      "type": "function"
    },
    {
      "inputs": [],
      "name": "name",
      "outputs": [
        {
          "internalType": "string",
          "name": "",
          "type": "string"
        }
      ],
      "stateMutability": "view",
      "type": "function"
    },
    {
      "inputs": [],
      "name": "symbol",
      "outputs": [
        {
          "internalType": "string",
          "name": "",
          "type": "string"
        }
      ],
      "stateMutability": "view",
      "type": "function"
    },
    {
      "inputs": [],
      "name": "totalSupply",
      "outputs": [
        {
          "internalType": "uint256",
          "name": "",
          "type": "uint256"
        }
      ],
      "stateMutability": "view",
      "type": "function"
    },
    {
      "inputs": [
        {
          "internalType": "address",
          "name": "to",
          "type": "address"
        },
        {
          "internalType": "uint256",
          "name": "amount",
          "type": "uint256"
        }
      ],
      "name": "transfer",
      "outputs": [
        {
          "internalType": "bool",
          "name": "",
          "type": "bool"
        }
      ],
      "stateMutability": "nonpayable",
      "type": "function"
    },
    {
      "inputs": [
        {
          "internalType": "address",
          "name": "from",
          "type": "address"
        },
        {
          "internalType": "address",
          "name": "to",
          "type": "address"
        },
        {
          "internalType": "uint256",
          "name": "amount",
          "type": "uint256"
        }
      ],
      "name": "transferFrom",
      "outputs": [
        {
          "internalType": "bool",
          "name": "",
          "type": "bool"
        }
      ],
      "stateMutability": "nonpayable",
      "type": "function"
    }
  ],
  "bytecode": "0x60a06040523480156200001157600080fd5b50604051620011233803806200112383398101604081905262000034916200014e565b838383600362000045848262000281565b50600462000054838262000281565b506005805460ff191660ff9290921691909117905550506001600160a01b0316608052506200034d915050565b634e487b7160e01b600052604160045260246000fd5b600082601f830112620000a957600080fd5b81516001600160401b0380821115620000c657620000c662000081565b604051601f8301601f19908116603f01168101908282118183101715620000f157620000f162000081565b816040528381526020925086838588010111156200010e57600080fd5b600091505b8382101562000132578582018301518183018401529082019062000113565b83821115620001445760008385830101525b9695505050505050565b600080600080608085870312156200016557600080fd5b84516001600160401b03808211156200017d57600080fd5b6200018b8883890162000097565b95506020870151915080821115620001a257600080fd5b50620001b18782880162000097565b935050604085015160ff81168114620001c957600080fd5b60608601519092506001600160a01b0381168114620001e757600080fd5b939692955090935050565b600181811c908216806200020757607f821691505b6020821081036200022857634e487b7160e01b600052602260045260246000fd5b50919050565b601f8211156200027c57600081815260208120601f850160051c81016020861015620002575750805b601f850160051c820191505b81811015620002785782815560010162000263565b5050505b505050565b81516001600160401b038111156200029d576200029d62000081565b620002b581620002ae8454620001f2565b846200022e565b602080601f831160018114620002ed5760008415620002d45750858301515b600019600386901b1c1916600185901b17855562000278565b600085815260208120601f198616915b828110156200031e57888601518255948401946001909101908401620002fd565b50858210156200033d5787850151600019600388901b60f8161c191681555b5050505050600190811b01905550565b608051610db3620003706000396000818161023601526103af0152610db36000f3fe608060405234801561001057600080fd5b50600436106100df5760003560e01c806340c10f191161008c578063a457c2d711610066578063a457c2d7146101c5578063a9059cbb146101d8578063dd62ed3e146101eb578063de5f72fd1461023157600080fd5b806340c10f191461017257806370a082311461018757806395d89b41146101bd57600080fd5b806323b872dd116100bd57806323b872dd14610137578063313ce5671461014a578063395093511461015f57600080fd5b806306fdde03146100e4578063095ea7b31461010257806318160ddd14610125575b600080fd5b6100ec61027d565b6040516100f99190610b94565b60405180910390f35b610115610110366004610c30565b61030f565b60405190151581526020016100f9565b6002545b6040519081526020016100f9565b610115610145366004610c5a565b610327565b60055460405160ff90911681526020016100f9565b61011561016d366004610c30565b61034b565b610185610180366004610c30565b610397565b005b610129610195366004610c96565b73ffffffffffffffffffffffffffffffffffffffff1660009081526020819052604090205490565b6100ec610449565b6101156101d3366004610c30565b610458565b6101156101e6366004610c30565b610529565b6101296101f9366004610cb8565b73ffffffffffffffffffffffffffffffffffffffff918216600090815260016020908152604080832093909416825291909152205490565b6102587f000000000000000000000000000000000000000000000000000000000000000081565b60405173ffffffffffffffffffffffffffffffffffffffff90911681526020016100f9565b60606003805461028c90610ceb565b80601f01602080910402602001604051908101604052809291908181526020018280546102b890610ceb565b80156103055780601f106102da57610100808354040283529160200191610305565b820191906000526020600020905b8154815290600101906020018083116102e857829003601f168201915b5050505050905090565b60003361031d818585610537565b5060019392505050565b6000336103358582856106ea565b6103408585856107c1565b506001949350505050565b33600081815260016020908152604080832073ffffffffffffffffffffffffffffffffffffffff8716845290915281205490919061031d9082908690610392908790610d3e565b610537565b3373ffffffffffffffffffffffffffffffffffffffff7f0000000000000000000000000000000000000000000000000000000000000000161461043b576040517f08c379a000000000000000000000000000000000000000000000000000000000815260206004820152600a60248201527f4e6f74206661756365740000000000000000000000000000000000000000000060448201526064015b60405180910390fd5b6104458282610a74565b5050565b60606004805461028c90610ceb565b33600081815260016020908152604080832073ffffffffffffffffffffffffffffffffffffffff871684529091528120549091908381101561051c576040517f08c379a000000000000000000000000000000000000000000000000000000000815260206004820152602560248201527f45524332303a2064656372656173656420616c6c6f77616e63652062656c6f7760448201527f207a65726f0000000000000000000000000000000000000000000000000000006064820152608401610432565b6103408286868403610537565b60003361031d8185856107c1565b73ffffffffffffffffffffffffffffffffffffffff83166105d9576040517f08c379a0000000000000000000000000000000000000000000000000000000008152602060048201526024808201527f45524332303a20617070726f76652066726f6d20746865207a65726f2061646460448201527f72657373000000000000000000000000000000000000000000000000000000006064820152608401610432565b73ffffffffffffffffffffffffffffffffffffffff821661067c576040517f08c379a000000000000000000000000000000000000000000000000000000000815260206004820152602260248201527f45524332303a20617070726f766520746f20746865207a65726f20616464726560448201527f73730000000000000000000000000000000000000000000000000000000000006064820152608401610432565b73ffffffffffffffffffffffffffffffffffffffff83811660008181526001602090815260408083209487168084529482529182902085905590518481527f8c5be1e5ebec7d5bd14f71427d1e84f3dd0314c0f7b2291e5b200ac8c7c3b925910160405180910390a3505050565b73ffffffffffffffffffffffffffffffffffffffff8381166000908152600160209081526040808320938616835292905220547fffffffffffffffffffffffffffffffffffffffffffffffffffffffffffffffff81146107bb57818110156107ae576040517f08c379a000000000000000000000000000000000000000000000000000000000815260206004820152601d60248201527f45524332303a20696e73756666696369656e7420616c6c6f77616e63650000006044820152606401610432565b6107bb8484848403610537565b50505050565b73ffffffffffffffffffffffffffffffffffffffff8316610864576040517f08c379a000000000000000000000000000000000000000000000000000000000815260206004820152602560248201527f45524332303a207472616e736665722066726f6d20746865207a65726f20616460448201527f64726573730000000000000000000000000000000000000000000000000000006064820152608401610432565b73ffffffffffffffffffffffffffffffffffffffff8216610907576040517f08c379a000000000000000000000000000000000000000000000000000000000815260206004820152602360248201527f45524332303a207472616e7366657220746f20746865207a65726f206164647260448201527f65737300000000000000000000000000000000000000000000000000000000006064820152608401610432565b73ffffffffffffffffffffffffffffffffffffffff8316600090815260208190526040902054818110156109bd576040517f08c379a000000000000000000000000000000000000000000000000000000000815260206004820152602660248201527f45524332303a207472616e7366657220616d6f756e742065786365656473206260448201527f616c616e636500000000000000000000000000000000000000000000000000006064820152608401610432565b73ffffffffffffffffffffffffffffffffffffffff808516600090815260208190526040808220858503905591851681529081208054849290610a01908490610d3e565b925050819055508273ffffffffffffffffffffffffffffffffffffffff168473ffffffffffffffffffffffffffffffffffffffff167fddf252ad1be2c89b69c2b068fc378daa952ba7f163c4a11628f55a4df523b3ef84604051610a6791815260200190565b60405180910390a36107bb565b73ffffffffffffffffffffffffffffffffffffffff8216610af1576040517f08c379a000000000000000000000000000000000000000000000000000000000815260206004820152601f60248201527f45524332303a206d696e7420746f20746865207a65726f2061646472657373006044820152606401610432565b8060026000828254610b039190610d3e565b909155505073ffffffffffffffffffffffffffffffffffffffff821660009081526020819052604081208054839290610b3d908490610d3e565b909155505060405181815273ffffffffffffffffffffffffffffffffffffffff8316906000907fddf252ad1be2c89b69c2b068fc378daa952ba7f163c4a11628f55a4df523b3ef9060200160405180910390a35050565b600060208083528351808285015260005b81811015610bc157858101830151858201604001528201610ba5565b81811115610bd3576000604083870101525b50601f017fffffffffffffffffffffffffffffffffffffffffffffffffffffffffffffffe016929092016040019392505050565b803573ffffffffffffffffffffffffffffffffffffffff81168114610c2b57600080fd5b919050565b60008060408385031215610c4357600080fd5b610c4c83610c07565b946020939093013593505050565b600080600060608486031215610c6f57600080fd5b610c7884610c07565b9250610c8660208501610c07565b9150604084013590509250925092565b600060208284031215610ca857600080fd5b610cb182610c07565b9392505050565b60008060408385031215610ccb57600080fd5b610cd483610c07565b9150610ce260208401610c07565b90509250929050565b600181811c90821680610cff57607f821691505b602082108103610d38577f4e487b7100000000000000000000000000000000000000000000000000000000600052602260045260246000fd5b50919050565b60008219821115610d78577f4e487b7100000000000000000000000000000000000000000000000000000000600052601160045260246000fd5b50019056fea2646970667358221220d9c9c7ea36a7608ca056276ad2a9aad3600bb8d9390dee6002aba3588dedf9cb64736f6c634300080f0033",
  "linkReferences": {},
  "deployedLinkReferences": {}
}